{
  "contractName": "Cutie",
  "abi": [
    {
      "inputs": [],
      "stateMutability": "nonpayable",
      "type": "constructor"
    },
    {
      "anonymous": false,
      "inputs": [
        {
          "indexed": true,
          "internalType": "address",
          "name": "owner",
          "type": "address"
        },
        {
          "indexed": true,
          "internalType": "address",
          "name": "approved",
          "type": "address"
        },
        {
          "indexed": true,
          "internalType": "uint256",
          "name": "tokenId",
          "type": "uint256"
        }
      ],
      "name": "Approval",
      "type": "event"
    },
    {
      "anonymous": false,
      "inputs": [
        {
          "indexed": true,
          "internalType": "address",
          "name": "owner",
          "type": "address"
        },
        {
          "indexed": true,
          "internalType": "address",
          "name": "operator",
          "type": "address"
        },
        {
          "indexed": false,
          "internalType": "bool",
          "name": "approved",
          "type": "bool"
        }
      ],
      "name": "ApprovalForAll",
      "type": "event"
    },
    {
      "anonymous": false,
      "inputs": [
        {
          "indexed": true,
          "internalType": "address",
          "name": "previousOwner",
          "type": "address"
        },
        {
          "indexed": true,
          "internalType": "address",
          "name": "newOwner",
          "type": "address"
        }
      ],
      "name": "OwnershipTransferred",
      "type": "event"
    },
    {
      "anonymous": false,
      "inputs": [
        {
          "indexed": true,
          "internalType": "address",
          "name": "from",
          "type": "address"
        },
        {
          "indexed": true,
          "internalType": "address",
          "name": "to",
          "type": "address"
        },
        {
          "indexed": true,
          "internalType": "uint256",
          "name": "tokenId",
          "type": "uint256"
        }
      ],
      "name": "Transfer",
      "type": "event"
    },
    {
      "inputs": [],
      "name": "TOKEN_URI",
      "outputs": [
        {
          "internalType": "string",
          "name": "",
          "type": "string"
        }
      ],
      "stateMutability": "view",
      "type": "function",
      "constant": true
    },
    {
      "inputs": [
        {
          "internalType": "address",
          "name": "to",
          "type": "address"
        },
        {
          "internalType": "uint256",
          "name": "tokenId",
          "type": "uint256"
        }
      ],
      "name": "approve",
      "outputs": [],
      "stateMutability": "nonpayable",
      "type": "function"
    },
    {
      "inputs": [
        {
          "internalType": "address",
          "name": "owner",
          "type": "address"
        }
      ],
      "name": "balanceOf",
      "outputs": [
        {
          "internalType": "uint256",
          "name": "",
          "type": "uint256"
        }
      ],
      "stateMutability": "view",
      "type": "function",
      "constant": true
    },
    {
      "inputs": [
        {
          "internalType": "uint256",
          "name": "tokenId",
          "type": "uint256"
        }
      ],
      "name": "getApproved",
      "outputs": [
        {
          "internalType": "address",
          "name": "",
          "type": "address"
        }
      ],
      "stateMutability": "view",
      "type": "function",
      "constant": true
    },
    {
      "inputs": [
        {
          "internalType": "address",
          "name": "owner",
          "type": "address"
        },
        {
          "internalType": "address",
          "name": "operator",
          "type": "address"
        }
      ],
      "name": "isApprovedForAll",
      "outputs": [
        {
          "internalType": "bool",
          "name": "",
          "type": "bool"
        }
      ],
      "stateMutability": "view",
      "type": "function",
      "constant": true
    },
    {
      "inputs": [],
      "name": "name",
      "outputs": [
        {
          "internalType": "string",
          "name": "",
          "type": "string"
        }
      ],
      "stateMutability": "view",
      "type": "function",
      "constant": true
    },
    {
      "inputs": [],
      "name": "owner",
      "outputs": [
        {
          "internalType": "address",
          "name": "",
          "type": "address"
        }
      ],
      "stateMutability": "view",
      "type": "function",
      "constant": true
    },
    {
      "inputs": [
        {
          "internalType": "uint256",
          "name": "tokenId",
          "type": "uint256"
        }
      ],
      "name": "ownerOf",
      "outputs": [
        {
          "internalType": "address",
          "name": "",
          "type": "address"
        }
      ],
      "stateMutability": "view",
      "type": "function",
      "constant": true
    },
    {
      "inputs": [],
      "name": "renounceOwnership",
      "outputs": [],
      "stateMutability": "nonpayable",
      "type": "function"
    },
    {
      "inputs": [
        {
          "internalType": "address",
          "name": "from",
          "type": "address"
        },
        {
          "internalType": "address",
          "name": "to",
          "type": "address"
        },
        {
          "internalType": "uint256",
          "name": "tokenId",
          "type": "uint256"
        }
      ],
      "name": "safeTransferFrom",
      "outputs": [],
      "stateMutability": "nonpayable",
      "type": "function"
    },
    {
      "inputs": [
        {
          "internalType": "address",
          "name": "from",
          "type": "address"
        },
        {
          "internalType": "address",
          "name": "to",
          "type": "address"
        },
        {
          "internalType": "uint256",
          "name": "tokenId",
          "type": "uint256"
        },
        {
          "internalType": "bytes",
          "name": "data",
          "type": "bytes"
        }
      ],
      "name": "safeTransferFrom",
      "outputs": [],
      "stateMutability": "nonpayable",
      "type": "function"
    },
    {
      "inputs": [
        {
          "internalType": "address",
          "name": "operator",
          "type": "address"
        },
        {
          "internalType": "bool",
          "name": "approved",
          "type": "bool"
        }
      ],
      "name": "setApprovalForAll",
      "outputs": [],
      "stateMutability": "nonpayable",
      "type": "function"
    },
    {
      "inputs": [],
      "name": "symbol",
      "outputs": [
        {
          "internalType": "string",
          "name": "",
          "type": "string"
        }
      ],
      "stateMutability": "view",
      "type": "function",
      "constant": true
    },
    {
      "inputs": [
        {
          "internalType": "uint256",
          "name": "index",
          "type": "uint256"
        }
      ],
      "name": "tokenByIndex",
      "outputs": [
        {
          "internalType": "uint256",
          "name": "",
          "type": "uint256"
        }
      ],
      "stateMutability": "view",
      "type": "function",
      "constant": true
    },
    {
      "inputs": [
        {
          "internalType": "address",
          "name": "owner",
          "type": "address"
        },
        {
          "internalType": "uint256",
          "name": "index",
          "type": "uint256"
        }
      ],
      "name": "tokenOfOwnerByIndex",
      "outputs": [
        {
          "internalType": "uint256",
          "name": "",
          "type": "uint256"
        }
      ],
      "stateMutability": "view",
      "type": "function",
      "constant": true
    },
    {
      "inputs": [],
      "name": "totalSupply",
      "outputs": [
        {
          "internalType": "uint256",
          "name": "",
          "type": "uint256"
        }
      ],
      "stateMutability": "view",
      "type": "function",
      "constant": true
    },
    {
      "inputs": [
        {
          "internalType": "address",
          "name": "from",
          "type": "address"
        },
        {
          "internalType": "address",
          "name": "to",
          "type": "address"
        },
        {
          "internalType": "uint256",
          "name": "tokenId",
          "type": "uint256"
        }
      ],
      "name": "transferFrom",
      "outputs": [],
      "stateMutability": "nonpayable",
      "type": "function"
    },
    {
      "inputs": [
        {
          "internalType": "address",
          "name": "newOwner",
          "type": "address"
        }
      ],
      "name": "transferOwnership",
      "outputs": [],
      "stateMutability": "nonpayable",
      "type": "function"
    },
    {
      "inputs": [
        {
          "internalType": "uint256",
          "name": "mintAmount",
          "type": "uint256"
        }
      ],
      "name": "safeMint",
      "outputs": [],
      "stateMutability": "payable",
      "type": "function",
      "payable": true
    },
    {
      "inputs": [],
      "name": "withdraw",
      "outputs": [],
      "stateMutability": "payable",
      "type": "function",
      "payable": true
    },
    {
      "inputs": [
        {
          "internalType": "uint256",
          "name": "tokenId",
          "type": "uint256"
        }
      ],
      "name": "tokenURI",
      "outputs": [
        {
          "internalType": "string",
          "name": "",
          "type": "string"
        }
      ],
      "stateMutability": "view",
      "type": "function",
      "constant": true
    },
    {
      "inputs": [
        {
          "internalType": "bytes4",
          "name": "interfaceId",
          "type": "bytes4"
        }
      ],
      "name": "supportsInterface",
      "outputs": [
        {
          "internalType": "bool",
          "name": "",
          "type": "bool"
        }
      ],
      "stateMutability": "view",
      "type": "function",
      "constant": true
    }
  ],
  "bytecode": "0x60806040526064600d55662386f26fc10000600e556005600f553480156200002657600080fd5b506040518060400160405280600581526020017f43757469650000000000000000000000000000000000000000000000000000008152506040518060400160405280600481526020017f43555445000000000000000000000000000000000000000000000000000000008152508160009081620000a4919062000427565b508060019081620000b6919062000427565b505050620000d9620000cd620000df60201b60201c565b620000e760201b60201c565b6200050e565b600033905090565b6000600b60009054906101000a900473ffffffffffffffffffffffffffffffffffffffff16905081600b60006101000a81548173ffffffffffffffffffffffffffffffffffffffff021916908373ffffffffffffffffffffffffffffffffffffffff1602179055508173ffffffffffffffffffffffffffffffffffffffff168173ffffffffffffffffffffffffffffffffffffffff167f8be0079c531659141344cd1fd0a4f28419497f9722a3daafe3b4186f6b6457e060405160405180910390a35050565b600081519050919050565b7f4e487b7100000000000000000000000000000000000000000000000000000000600052604160045260246000fd5b7f4e487b7100000000000000000000000000000000000000000000000000000000600052602260045260246000fd5b600060028204905060018216806200022f57607f821691505b602082108103620002455762000244620001e7565b5b50919050565b60008190508160005260206000209050919050565b60006020601f8301049050919050565b600082821b905092915050565b600060088302620002af7fffffffffffffffffffffffffffffffffffffffffffffffffffffffffffffffff8262000270565b620002bb868362000270565b95508019841693508086168417925050509392505050565b6000819050919050565b6000819050919050565b60006200030862000302620002fc84620002d3565b620002dd565b620002d3565b9050919050565b6000819050919050565b6200032483620002e7565b6200033c62000333826200030f565b8484546200027d565b825550505050565b600090565b6200035362000344565b6200036081848462000319565b505050565b5b8181101562000388576200037c60008262000349565b60018101905062000366565b5050565b601f821115620003d757620003a1816200024b565b620003ac8462000260565b81016020851015620003bc578190505b620003d4620003cb8562000260565b83018262000365565b50505b505050565b600082821c905092915050565b6000620003fc60001984600802620003dc565b1980831691505092915050565b6000620004178383620003e9565b9150826002028217905092915050565b6200043282620001ad565b67ffffffffffffffff8111156200044e576200044d620001b8565b5b6200045a825462000216565b620004678282856200038c565b600060209050601f8311600181146200049f57600084156200048a578287015190505b62000496858262000409565b86555062000506565b601f198416620004af866200024b565b60005b82811015620004d957848901518255600182019150602085019450602081019050620004b2565b86831015620004f95784890151620004f5601f891682620003e9565b8355505b6001600288020188555050505b505050505050565b613c44806200051e6000396000f3fe6080604052600436106101355760003560e01c80636352211e116100ab57806395d89b411161006f57806395d89b411461040c578063a22cb46514610437578063b88d4fde14610460578063c87b56dd14610489578063e985e9c5146104c6578063f2fde38b1461050357610135565b80636352211e1461032557806370a0823114610362578063715018a61461039f57806378ce9035146103b65780638da5cb5b146103e157610135565b806323b872dd116100fd57806323b872dd146102335780632f745c591461025c57806331c864e8146102995780633ccfd60b146102b557806342842e0e146102bf5780634f6ccce7146102e857610135565b806301ffc9a71461013a57806306fdde0314610177578063081812fc146101a2578063095ea7b3146101df57806318160ddd14610208575b600080fd5b34801561014657600080fd5b50610161600480360381019061015c91906124c1565b61052c565b60405161016e9190612509565b60405180910390f35b34801561018357600080fd5b5061018c61053e565b60405161019991906125bd565b60405180910390f35b3480156101ae57600080fd5b506101c960048036038101906101c49190612615565b6105d0565b6040516101d69190612683565b60405180910390f35b3480156101eb57600080fd5b50610206600480360381019061020191906126ca565b610616565b005b34801561021457600080fd5b5061021d61072d565b60405161022a9190612719565b60405180910390f35b34801561023f57600080fd5b5061025a60048036038101906102559190612734565b61073a565b005b34801561026857600080fd5b50610283600480360381019061027e91906126ca565b61079a565b6040516102909190612719565b60405180910390f35b6102b360048036038101906102ae9190612615565b61083f565b005b6102bd6109da565b005b3480156102cb57600080fd5b506102e660048036038101906102e19190612734565b610ada565b005b3480156102f457600080fd5b5061030f600480360381019061030a9190612615565b610afa565b60405161031c9190612719565b60405180910390f35b34801561033157600080fd5b5061034c60048036038101906103479190612615565b610b6b565b6040516103599190612683565b60405180910390f35b34801561036e57600080fd5b5061038960048036038101906103849190612787565b610c1c565b6040516103969190612719565b60405180910390f35b3480156103ab57600080fd5b506103b4610cd3565b005b3480156103c257600080fd5b506103cb610ce7565b6040516103d891906125bd565b60405180910390f35b3480156103ed57600080fd5b506103f6610d03565b6040516104039190612683565b60405180910390f35b34801561041857600080fd5b50610421610d2d565b60405161042e91906125bd565b60405180910390f35b34801561044357600080fd5b5061045e600480360381019061045991906127e0565b610dbf565b005b34801561046c57600080fd5b5061048760048036038101906104829190612955565b610dd5565b005b34801561049557600080fd5b506104b060048036038101906104ab9190612615565b610e37565b6040516104bd91906125bd565b60405180910390f35b3480156104d257600080fd5b506104ed60048036038101906104e891906129d8565b610e49565b6040516104fa9190612509565b60405180910390f35b34801561050f57600080fd5b5061052a60048036038101906105259190612787565b610edd565b005b600061053782610f60565b9050919050565b60606000805461054d90612a47565b80601f016020809104026020016040519081016040528092919081815260200182805461057990612a47565b80156105c65780601f1061059b576101008083540402835291602001916105c6565b820191906000526020600020905b8154815290600101906020018083116105a957829003601f168201915b5050505050905090565b60006105db82610fda565b6004600083815260200190815260200160002060009054906101000a900473ffffffffffffffffffffffffffffffffffffffff169050919050565b600061062182610b6b565b90508073ffffffffffffffffffffffffffffffffffffffff168373ffffffffffffffffffffffffffffffffffffffff1603610691576040517f08c379a000000000000000000000000000000000000000000000000000000000815260040161068890612aea565b60405180910390fd5b8073ffffffffffffffffffffffffffffffffffffffff166106b0611025565b73ffffffffffffffffffffffffffffffffffffffff1614806106df57506106de816106d9611025565b610e49565b5b61071e576040517f08c379a000000000000000000000000000000000000000000000000000000000815260040161071590612b7c565b60405180910390fd5b610728838361102d565b505050565b6000600880549050905090565b61074b610745611025565b826110e6565b61078a576040517f08c379a000000000000000000000000000000000000000000000000000000000815260040161078190612c0e565b60405180910390fd5b61079583838361117b565b505050565b60006107a583610c1c565b82106107e6576040517f08c379a00000000000000000000000000000000000000000000000000000000081526004016107dd90612ca0565b60405180910390fd5b600660008473ffffffffffffffffffffffffffffffffffffffff1673ffffffffffffffffffffffffffffffffffffffff168152602001908152602001600020600083815260200190815260200160002054905092915050565b60008111610882576040517f08c379a000000000000000000000000000000000000000000000000000000000815260040161087990612d0c565b60405180910390fd5b600f548111156108c7576040517f08c379a00000000000000000000000000000000000000000000000000000000081526004016108be90612d9e565b60405180910390fd5b600d54816108d5600c6113e1565b6108df9190612ded565b1115610920576040517f08c379a000000000000000000000000000000000000000000000000000000000815260040161091790612e8f565b60405180910390fd5b80600e5461092e9190612eaf565b341015610970576040517f08c379a000000000000000000000000000000000000000000000000000000000815260040161096790612f55565b60405180910390fd5b6000600190505b8181116109d657610988600c6113ef565b6000610994600c6113e1565b90506109a03382611405565b6109c281604051806060016040528060358152602001613bda60359139611423565b5080806109ce90612f75565b915050610977565b5050565b6109e2611490565b600047905060008111610a2a576040517f08c379a0000000000000000000000000000000000000000000000000000000008152600401610a2190613009565b60405180910390fd5b60003373ffffffffffffffffffffffffffffffffffffffff1682604051610a509061305a565b60006040518083038185875af1925050503d8060008114610a8d576040519150601f19603f3d011682016040523d82523d6000602084013e610a92565b606091505b5050905080610ad6576040517f08c379a0000000000000000000000000000000000000000000000000000000008152600401610acd906130bb565b60405180910390fd5b5050565b610af583838360405180602001604052806000815250610dd5565b505050565b6000610b0461072d565b8210610b45576040517f08c379a0000000000000000000000000000000000000000000000000000000008152600401610b3c9061314d565b60405180910390fd5b60088281548110610b5957610b5861316d565b5b90600052602060002001549050919050565b6000806002600084815260200190815260200160002060009054906101000a900473ffffffffffffffffffffffffffffffffffffffff169050600073ffffffffffffffffffffffffffffffffffffffff168173ffffffffffffffffffffffffffffffffffffffff1603610c13576040517f08c379a0000000000000000000000000000000000000000000000000000000008152600401610c0a906131e8565b60405180910390fd5b80915050919050565b60008073ffffffffffffffffffffffffffffffffffffffff168273ffffffffffffffffffffffffffffffffffffffff1603610c8c576040517f08c379a0000000000000000000000000000000000000000000000000000000008152600401610c839061327a565b60405180910390fd5b600360008373ffffffffffffffffffffffffffffffffffffffff1673ffffffffffffffffffffffffffffffffffffffff168152602001908152602001600020549050919050565b610cdb611490565b610ce5600061150e565b565b604051806060016040528060358152602001613bda6035913981565b6000600b60009054906101000a900473ffffffffffffffffffffffffffffffffffffffff16905090565b606060018054610d3c90612a47565b80601f0160208091040260200160405190810160405280929190818152602001828054610d6890612a47565b8015610db55780601f10610d8a57610100808354040283529160200191610db5565b820191906000526020600020905b815481529060010190602001808311610d9857829003601f168201915b5050505050905090565b610dd1610dca611025565b83836115d4565b5050565b610de6610de0611025565b836110e6565b610e25576040517f08c379a0000000000000000000000000000000000000000000000000000000008152600401610e1c90612c0e565b60405180910390fd5b610e3184848484611740565b50505050565b6060610e428261179c565b9050919050565b6000600560008473ffffffffffffffffffffffffffffffffffffffff1673ffffffffffffffffffffffffffffffffffffffff16815260200190815260200160002060008373ffffffffffffffffffffffffffffffffffffffff1673ffffffffffffffffffffffffffffffffffffffff16815260200190815260200160002060009054906101000a900460ff16905092915050565b610ee5611490565b600073ffffffffffffffffffffffffffffffffffffffff168173ffffffffffffffffffffffffffffffffffffffff1603610f54576040517f08c379a0000000000000000000000000000000000000000000000000000000008152600401610f4b9061330c565b60405180910390fd5b610f5d8161150e565b50565b60007f780e9d63000000000000000000000000000000000000000000000000000000007bffffffffffffffffffffffffffffffffffffffffffffffffffffffff1916827bffffffffffffffffffffffffffffffffffffffffffffffffffffffff19161480610fd35750610fd2826118ae565b5b9050919050565b610fe381611990565b611022576040517f08c379a0000000000000000000000000000000000000000000000000000000008152600401611019906131e8565b60405180910390fd5b50565b600033905090565b816004600083815260200190815260200160002060006101000a81548173ffffffffffffffffffffffffffffffffffffffff021916908373ffffffffffffffffffffffffffffffffffffffff160217905550808273ffffffffffffffffffffffffffffffffffffffff166110a083610b6b565b73ffffffffffffffffffffffffffffffffffffffff167f8c5be1e5ebec7d5bd14f71427d1e84f3dd0314c0f7b2291e5b200ac8c7c3b92560405160405180910390a45050565b6000806110f283610b6b565b90508073ffffffffffffffffffffffffffffffffffffffff168473ffffffffffffffffffffffffffffffffffffffff16148061113457506111338185610e49565b5b8061117257508373ffffffffffffffffffffffffffffffffffffffff1661115a846105d0565b73ffffffffffffffffffffffffffffffffffffffff16145b91505092915050565b8273ffffffffffffffffffffffffffffffffffffffff1661119b82610b6b565b73ffffffffffffffffffffffffffffffffffffffff16146111f1576040517f08c379a00000000000000000000000000000000000000000000000000000000081526004016111e89061339e565b60405180910390fd5b600073ffffffffffffffffffffffffffffffffffffffff168273ffffffffffffffffffffffffffffffffffffffff1603611260576040517f08c379a000000000000000000000000000000000000000000000000000000000815260040161125790613430565b60405180910390fd5b61126b8383836119fc565b61127660008261102d565b6001600360008573ffffffffffffffffffffffffffffffffffffffff1673ffffffffffffffffffffffffffffffffffffffff16815260200190815260200160002060008282546112c69190613450565b925050819055506001600360008473ffffffffffffffffffffffffffffffffffffffff1673ffffffffffffffffffffffffffffffffffffffff168152602001908152602001600020600082825461131d9190612ded565b92505081905550816002600083815260200190815260200160002060006101000a81548173ffffffffffffffffffffffffffffffffffffffff021916908373ffffffffffffffffffffffffffffffffffffffff160217905550808273ffffffffffffffffffffffffffffffffffffffff168473ffffffffffffffffffffffffffffffffffffffff167fddf252ad1be2c89b69c2b068fc378daa952ba7f163c4a11628f55a4df523b3ef60405160405180910390a46113dc838383611a0c565b505050565b600081600001549050919050565b6001816000016000828254019250508190555050565b61141f828260405180602001604052806000815250611a11565b5050565b61142c82611990565b61146b576040517f08c379a0000000000000000000000000000000000000000000000000000000008152600401611462906134f6565b60405180910390fd5b80600a6000848152602001908152602001600020908161148b91906136c2565b505050565b611498611025565b73ffffffffffffffffffffffffffffffffffffffff166114b6610d03565b73ffffffffffffffffffffffffffffffffffffffff161461150c576040517f08c379a0000000000000000000000000000000000000000000000000000000008152600401611503906137e0565b60405180910390fd5b565b6000600b60009054906101000a900473ffffffffffffffffffffffffffffffffffffffff16905081600b60006101000a81548173ffffffffffffffffffffffffffffffffffffffff021916908373ffffffffffffffffffffffffffffffffffffffff1602179055508173ffffffffffffffffffffffffffffffffffffffff168173ffffffffffffffffffffffffffffffffffffffff167f8be0079c531659141344cd1fd0a4f28419497f9722a3daafe3b4186f6b6457e060405160405180910390a35050565b8173ffffffffffffffffffffffffffffffffffffffff168373ffffffffffffffffffffffffffffffffffffffff1603611642576040517f08c379a00000000000000000000000000000000000000000000000000000000081526004016116399061384c565b60405180910390fd5b80600560008573ffffffffffffffffffffffffffffffffffffffff1673ffffffffffffffffffffffffffffffffffffffff16815260200190815260200160002060008473ffffffffffffffffffffffffffffffffffffffff1673ffffffffffffffffffffffffffffffffffffffff16815260200190815260200160002060006101000a81548160ff0219169083151502179055508173ffffffffffffffffffffffffffffffffffffffff168373ffffffffffffffffffffffffffffffffffffffff167f17307eab39ab6107e8899845ad3d59bd9653f200f220920489ca2b5937696c31836040516117339190612509565b60405180910390a3505050565b61174b84848461117b565b61175784848484611a6c565b611796576040517f08c379a000000000000000000000000000000000000000000000000000000000815260040161178d906138de565b60405180910390fd5b50505050565b60606117a782610fda565b6000600a600084815260200190815260200160002080546117c790612a47565b80601f01602080910402602001604051908101604052809291908181526020018280546117f390612a47565b80156118405780601f1061181557610100808354040283529160200191611840565b820191906000526020600020905b81548152906001019060200180831161182357829003601f168201915b505050505090506000611851611bf3565b905060008151036118665781925050506118a9565b60008251111561189b57808260405160200161188392919061393a565b604051602081830303815290604052925050506118a9565b6118a484611c0a565b925050505b919050565b60007f80ac58cd000000000000000000000000000000000000000000000000000000007bffffffffffffffffffffffffffffffffffffffffffffffffffffffff1916827bffffffffffffffffffffffffffffffffffffffffffffffffffffffff1916148061197957507f5b5e139f000000000000000000000000000000000000000000000000000000007bffffffffffffffffffffffffffffffffffffffffffffffffffffffff1916827bffffffffffffffffffffffffffffffffffffffffffffffffffffffff1916145b80611989575061198882611c72565b5b9050919050565b60008073ffffffffffffffffffffffffffffffffffffffff166002600084815260200190815260200160002060009054906101000a900473ffffffffffffffffffffffffffffffffffffffff1673ffffffffffffffffffffffffffffffffffffffff1614159050919050565b611a07838383611cdc565b505050565b505050565b611a1b8383611dee565b611a286000848484611a6c565b611a67576040517f08c379a0000000000000000000000000000000000000000000000000000000008152600401611a5e906138de565b60405180910390fd5b505050565b6000611a8d8473ffffffffffffffffffffffffffffffffffffffff16611fc7565b15611be6578373ffffffffffffffffffffffffffffffffffffffff1663150b7a02611ab6611025565b8786866040518563ffffffff1660e01b8152600401611ad894939291906139b3565b6020604051808303816000875af1925050508015611b1457506040513d601f19601f82011682018060405250810190611b119190613a14565b60015b611b96573d8060008114611b44576040519150601f19603f3d011682016040523d82523d6000602084013e611b49565b606091505b506000815103611b8e576040517f08c379a0000000000000000000000000000000000000000000000000000000008152600401611b85906138de565b60405180910390fd5b805181602001fd5b63150b7a0260e01b7bffffffffffffffffffffffffffffffffffffffffffffffffffffffff1916817bffffffffffffffffffffffffffffffffffffffffffffffffffffffff191614915050611beb565b600190505b949350505050565b606060405180602001604052806000815250905090565b6060611c1582610fda565b6000611c1f611bf3565b90506000815111611c3f5760405180602001604052806000815250611c6a565b80611c4984611fea565b604051602001611c5a92919061393a565b6040516020818303038152906040525b915050919050565b60007f01ffc9a7000000000000000000000000000000000000000000000000000000007bffffffffffffffffffffffffffffffffffffffffffffffffffffffff1916827bffffffffffffffffffffffffffffffffffffffffffffffffffffffff1916149050919050565b611ce783838361214a565b600073ffffffffffffffffffffffffffffffffffffffff168373ffffffffffffffffffffffffffffffffffffffff1603611d2957611d248161214f565b611d68565b8173ffffffffffffffffffffffffffffffffffffffff168373ffffffffffffffffffffffffffffffffffffffff1614611d6757611d668382612198565b5b5b600073ffffffffffffffffffffffffffffffffffffffff168273ffffffffffffffffffffffffffffffffffffffff1603611daa57611da581612305565b611de9565b8273ffffffffffffffffffffffffffffffffffffffff168273ffffffffffffffffffffffffffffffffffffffff1614611de857611de782826123d6565b5b5b505050565b600073ffffffffffffffffffffffffffffffffffffffff168273ffffffffffffffffffffffffffffffffffffffff1603611e5d576040517f08c379a0000000000000000000000000000000000000000000000000000000008152600401611e5490613a8d565b60405180910390fd5b611e6681611990565b15611ea6576040517f08c379a0000000000000000000000000000000000000000000000000000000008152600401611e9d90613af9565b60405180910390fd5b611eb2600083836119fc565b6001600360008473ffffffffffffffffffffffffffffffffffffffff1673ffffffffffffffffffffffffffffffffffffffff1681526020019081526020016000206000828254611f029190612ded565b92505081905550816002600083815260200190815260200160002060006101000a81548173ffffffffffffffffffffffffffffffffffffffff021916908373ffffffffffffffffffffffffffffffffffffffff160217905550808273ffffffffffffffffffffffffffffffffffffffff16600073ffffffffffffffffffffffffffffffffffffffff167fddf252ad1be2c89b69c2b068fc378daa952ba7f163c4a11628f55a4df523b3ef60405160405180910390a4611fc360008383611a0c565b5050565b6000808273ffffffffffffffffffffffffffffffffffffffff163b119050919050565b606060008203612031576040518060400160405280600181526020017f30000000000000000000000000000000000000000000000000000000000000008152509050612145565b600082905060005b6000821461206357808061204c90612f75565b915050600a8261205c9190613b48565b9150612039565b60008167ffffffffffffffff81111561207f5761207e61282a565b5b6040519080825280601f01601f1916602001820160405280156120b15781602001600182028036833780820191505090505b5090505b6000851461213e576001826120ca9190613450565b9150600a856120d99190613b79565b60306120e59190612ded565b60f81b8183815181106120fb576120fa61316d565b5b60200101907effffffffffffffffffffffffffffffffffffffffffffffffffffffffffffff1916908160001a905350600a856121379190613b48565b94506120b5565b8093505050505b919050565b505050565b6008805490506009600083815260200190815260200160002081905550600881908060018154018082558091505060019003906000526020600020016000909190919091505550565b600060016121a584610c1c565b6121af9190613450565b9050600060076000848152602001908152602001600020549050818114612294576000600660008673ffffffffffffffffffffffffffffffffffffffff1673ffffffffffffffffffffffffffffffffffffffff168152602001908152602001600020600084815260200190815260200160002054905080600660008773ffffffffffffffffffffffffffffffffffffffff1673ffffffffffffffffffffffffffffffffffffffff168152602001908152602001600020600084815260200190815260200160002081905550816007600083815260200190815260200160002081905550505b6007600084815260200190815260200160002060009055600660008573ffffffffffffffffffffffffffffffffffffffff1673ffffffffffffffffffffffffffffffffffffffff16815260200190815260200160002060008381526020019081526020016000206000905550505050565b600060016008805490506123199190613450565b90506000600960008481526020019081526020016000205490506000600883815481106123495761234861316d565b5b90600052602060002001549050806008838154811061236b5761236a61316d565b5b9060005260206000200181905550816009600083815260200190815260200160002081905550600960008581526020019081526020016000206000905560088054806123ba576123b9613baa565b5b6001900381819060005260206000200160009055905550505050565b60006123e183610c1c565b905081600660008573ffffffffffffffffffffffffffffffffffffffff1673ffffffffffffffffffffffffffffffffffffffff168152602001908152602001600020600083815260200190815260200160002081905550806007600084815260200190815260200160002081905550505050565b6000604051905090565b600080fd5b600080fd5b60007fffffffff0000000000000000000000000000000000000000000000000000000082169050919050565b61249e81612469565b81146124a957600080fd5b50565b6000813590506124bb81612495565b92915050565b6000602082840312156124d7576124d661245f565b5b60006124e5848285016124ac565b91505092915050565b60008115159050919050565b612503816124ee565b82525050565b600060208201905061251e60008301846124fa565b92915050565b600081519050919050565b600082825260208201905092915050565b60005b8381101561255e578082015181840152602081019050612543565b8381111561256d576000848401525b50505050565b6000601f19601f8301169050919050565b600061258f82612524565b612599818561252f565b93506125a9818560208601612540565b6125b281612573565b840191505092915050565b600060208201905081810360008301526125d78184612584565b905092915050565b6000819050919050565b6125f2816125df565b81146125fd57600080fd5b50565b60008135905061260f816125e9565b92915050565b60006020828403121561262b5761262a61245f565b5b600061263984828501612600565b91505092915050565b600073ffffffffffffffffffffffffffffffffffffffff82169050919050565b600061266d82612642565b9050919050565b61267d81612662565b82525050565b60006020820190506126986000830184612674565b92915050565b6126a781612662565b81146126b257600080fd5b50565b6000813590506126c48161269e565b92915050565b600080604083850312156126e1576126e061245f565b5b60006126ef858286016126b5565b925050602061270085828601612600565b9150509250929050565b612713816125df565b82525050565b600060208201905061272e600083018461270a565b92915050565b60008060006060848603121561274d5761274c61245f565b5b600061275b868287016126b5565b935050602061276c868287016126b5565b925050604061277d86828701612600565b9150509250925092565b60006020828403121561279d5761279c61245f565b5b60006127ab848285016126b5565b91505092915050565b6127bd816124ee565b81146127c857600080fd5b50565b6000813590506127da816127b4565b92915050565b600080604083850312156127f7576127f661245f565b5b6000612805858286016126b5565b9250506020612816858286016127cb565b9150509250929050565b600080fd5b600080fd5b7f4e487b7100000000000000000000000000000000000000000000000000000000600052604160045260246000fd5b61286282612573565b810181811067ffffffffffffffff821117156128815761288061282a565b5b80604052505050565b6000612894612455565b90506128a08282612859565b919050565b600067ffffffffffffffff8211156128c0576128bf61282a565b5b6128c982612573565b9050602081019050919050565b82818337600083830152505050565b60006128f86128f3846128a5565b61288a565b90508281526020810184848401111561291457612913612825565b5b61291f8482856128d6565b509392505050565b600082601f83011261293c5761293b612820565b5b813561294c8482602086016128e5565b91505092915050565b6000806000806080858703121561296f5761296e61245f565b5b600061297d878288016126b5565b945050602061298e878288016126b5565b935050604061299f87828801612600565b925050606085013567ffffffffffffffff8111156129c0576129bf612464565b5b6129cc87828801612927565b91505092959194509250565b600080604083850312156129ef576129ee61245f565b5b60006129fd858286016126b5565b9250506020612a0e858286016126b5565b9150509250929050565b7f4e487b7100000000000000000000000000000000000000000000000000000000600052602260045260246000fd5b60006002820490506001821680612a5f57607f821691505b602082108103612a7257612a71612a18565b5b50919050565b7f4552433732313a20617070726f76616c20746f2063757272656e74206f776e6560008201527f7200000000000000000000000000000000000000000000000000000000000000602082015250565b6000612ad460218361252f565b9150612adf82612a78565b604082019050919050565b60006020820190508181036000830152612b0381612ac7565b9050919050565b7f4552433732313a20617070726f76652063616c6c6572206973206e6f7420746f60008201527f6b656e206f776e6572206e6f7220617070726f76656420666f7220616c6c0000602082015250565b6000612b66603e8361252f565b9150612b7182612b0a565b604082019050919050565b60006020820190508181036000830152612b9581612b59565b9050919050565b7f4552433732313a2063616c6c6572206973206e6f7420746f6b656e206f776e6560008201527f72206e6f7220617070726f766564000000000000000000000000000000000000602082015250565b6000612bf8602e8361252f565b9150612c0382612b9c565b604082019050919050565b60006020820190508181036000830152612c2781612beb565b9050919050565b7f455243373231456e756d657261626c653a206f776e657220696e646578206f7560008201527f74206f6620626f756e6473000000000000000000000000000000000000000000602082015250565b6000612c8a602b8361252f565b9150612c9582612c2e565b604082019050919050565b60006020820190508181036000830152612cb981612c7d565b9050919050565b7f4d757374206d696e74206174206c656173742031000000000000000000000000600082015250565b6000612cf660148361252f565b9150612d0182612cc0565b602082019050919050565b60006020820190508181036000830152612d2581612ce9565b9050919050565b7f4d6178696d756d2035206e66747320616c6c6f77656420696e2061207472616e60008201527f73616374696f6e00000000000000000000000000000000000000000000000000602082015250565b6000612d8860278361252f565b9150612d9382612d2c565b604082019050919050565b60006020820190508181036000830152612db781612d7b565b9050919050565b7f4e487b7100000000000000000000000000000000000000000000000000000000600052601160045260246000fd5b6000612df8826125df565b9150612e03836125df565b9250827fffffffffffffffffffffffffffffffffffffffffffffffffffffffffffffffff03821115612e3857612e37612dbe565b5b828201905092915050565b7f537570706c79206973206e6f7420656e6f756768000000000000000000000000600082015250565b6000612e7960148361252f565b9150612e8482612e43565b602082019050919050565b60006020820190508181036000830152612ea881612e6c565b9050919050565b6000612eba826125df565b9150612ec5836125df565b9250817fffffffffffffffffffffffffffffffffffffffffffffffffffffffffffffffff0483118215151615612efe57612efd612dbe565b5b828202905092915050565b7f496e73756666696369656e742062616c616e6365000000000000000000000000600082015250565b6000612f3f60148361252f565b9150612f4a82612f09565b602082019050919050565b60006020820190508181036000830152612f6e81612f32565b9050919050565b6000612f80826125df565b91507fffffffffffffffffffffffffffffffffffffffffffffffffffffffffffffffff8203612fb257612fb1612dbe565b5b600182019050919050565b7f4e6f7420656e6f7567682062616c616e63650000000000000000000000000000600082015250565b6000612ff360128361252f565b9150612ffe82612fbd565b602082019050919050565b6000602082019050818103600083015261302281612fe6565b9050919050565b600081905092915050565b50565b6000613044600083613029565b915061304f82613034565b600082019050919050565b600061306582613037565b9150819050919050565b7f5769746864726177206661696c65640000000000000000000000000000000000600082015250565b60006130a5600f8361252f565b91506130b08261306f565b602082019050919050565b600060208201905081810360008301526130d481613098565b9050919050565b7f455243373231456e756d657261626c653a20676c6f62616c20696e646578206f60008201527f7574206f6620626f756e64730000000000000000000000000000000000000000602082015250565b6000613137602c8361252f565b9150613142826130db565b604082019050919050565b600060208201905081810360008301526131668161312a565b9050919050565b7f4e487b7100000000000000000000000000000000000000000000000000000000600052603260045260246000fd5b7f4552433732313a20696e76616c696420746f6b656e2049440000000000000000600082015250565b60006131d260188361252f565b91506131dd8261319c565b602082019050919050565b60006020820190508181036000830152613201816131c5565b9050919050565b7f4552433732313a2061646472657373207a65726f206973206e6f74206120766160008201527f6c6964206f776e65720000000000000000000000000000000000000000000000602082015250565b600061326460298361252f565b915061326f82613208565b604082019050919050565b6000602082019050818103600083015261329381613257565b9050919050565b7f4f776e61626c653a206e6577206f776e657220697320746865207a65726f206160008201527f6464726573730000000000000000000000000000000000000000000000000000602082015250565b60006132f660268361252f565b91506133018261329a565b604082019050919050565b60006020820190508181036000830152613325816132e9565b9050919050565b7f4552433732313a207472616e736665722066726f6d20696e636f72726563742060008201527f6f776e6572000000000000000000000000000000000000000000000000000000602082015250565b600061338860258361252f565b91506133938261332c565b604082019050919050565b600060208201905081810360008301526133b78161337b565b9050919050565b7f4552433732313a207472616e7366657220746f20746865207a65726f2061646460008201527f7265737300000000000000000000000000000000000000000000000000000000602082015250565b600061341a60248361252f565b9150613425826133be565b604082019050919050565b600060208201905081810360008301526134498161340d565b9050919050565b600061345b826125df565b9150613466836125df565b92508282101561347957613478612dbe565b5b828203905092915050565b7f45524337323155524953746f726167653a2055524920736574206f66206e6f6e60008201527f6578697374656e7420746f6b656e000000000000000000000000000000000000602082015250565b60006134e0602e8361252f565b91506134eb82613484565b604082019050919050565b6000602082019050818103600083015261350f816134d3565b9050919050565b60008190508160005260206000209050919050565b60006020601f8301049050919050565b600082821b905092915050565b6000600883026135787fffffffffffffffffffffffffffffffffffffffffffffffffffffffffffffffff8261353b565b613582868361353b565b95508019841693508086168417925050509392505050565b6000819050919050565b60006135bf6135ba6135b5846125df565b61359a565b6125df565b9050919050565b6000819050919050565b6135d9836135a4565b6135ed6135e5826135c6565b848454613548565b825550505050565b600090565b6136026135f5565b61360d8184846135d0565b505050565b5b81811015613631576136266000826135fa565b600181019050613613565b5050565b601f8211156136765761364781613516565b6136508461352b565b8101602085101561365f578190505b61367361366b8561352b565b830182613612565b50505b505050565b600082821c905092915050565b60006136996000198460080261367b565b1980831691505092915050565b60006136b28383613688565b9150826002028217905092915050565b6136cb82612524565b67ffffffffffffffff8111156136e4576136e361282a565b5b6136ee8254612a47565b6136f9828285613635565b600060209050601f83116001811461372c576000841561371a578287015190505b61372485826136a6565b86555061378c565b601f19841661373a86613516565b60005b828110156137625784890151825560018201915060208501945060208101905061373d565b8683101561377f578489015161377b601f891682613688565b8355505b6001600288020188555050505b505050505050565b7f4f776e61626c653a2063616c6c6572206973206e6f7420746865206f776e6572600082015250565b60006137ca60208361252f565b91506137d582613794565b602082019050919050565b600060208201905081810360008301526137f9816137bd565b9050919050565b7f4552433732313a20617070726f766520746f2063616c6c657200000000000000600082015250565b600061383660198361252f565b915061384182613800565b602082019050919050565b6000602082019050818103600083015261386581613829565b9050919050565b7f4552433732313a207472616e7366657220746f206e6f6e20455243373231526560008201527f63656976657220696d706c656d656e7465720000000000000000000000000000602082015250565b60006138c860328361252f565b91506138d38261386c565b604082019050919050565b600060208201905081810360008301526138f7816138bb565b9050919050565b600081905092915050565b600061391482612524565b61391e81856138fe565b935061392e818560208601612540565b80840191505092915050565b60006139468285613909565b91506139528284613909565b91508190509392505050565b600081519050919050565b600082825260208201905092915050565b60006139858261395e565b61398f8185613969565b935061399f818560208601612540565b6139a881612573565b840191505092915050565b60006080820190506139c86000830187612674565b6139d56020830186612674565b6139e2604083018561270a565b81810360608301526139f4818461397a565b905095945050505050565b600081519050613a0e81612495565b92915050565b600060208284031215613a2a57613a2961245f565b5b6000613a38848285016139ff565b91505092915050565b7f4552433732313a206d696e7420746f20746865207a65726f2061646472657373600082015250565b6000613a7760208361252f565b9150613a8282613a41565b602082019050919050565b60006020820190508181036000830152613aa681613a6a565b9050919050565b7f4552433732313a20746f6b656e20616c7265616479206d696e74656400000000600082015250565b6000613ae3601c8361252f565b9150613aee82613aad565b602082019050919050565b60006020820190508181036000830152613b1281613ad6565b9050919050565b7f4e487b7100000000000000000000000000000000000000000000000000000000600052601260045260246000fd5b6000613b53826125df565b9150613b5e836125df565b925082613b6e57613b6d613b19565b5b828204905092915050565b6000613b84826125df565b9150613b8f836125df565b925082613b9f57613b9e613b19565b5b828206905092915050565b7f4e487b7100000000000000000000000000000000000000000000000000000000600052603160045260246000fdfe697066733a2f2f516d5a76424673544668665237356245566974475648637143436b52355767596d6748564e696848356e6d656a4ea2646970667358221220b6eb5ba4d818deb4741b98a13105d7a9e86102c82ce39c7830cad4fa2c151ff864736f6c634300080f0033",
  "immutableReferences": {},
  "source": "// SPDX-License-Identifier: MIT\r\npragma solidity >=0.8.4;\r\n\r\nimport \"@openzeppelin/contracts/token/ERC721/ERC721.sol\";\r\nimport \"@openzeppelin/contracts/token/ERC721/extensions/ERC721Enumerable.sol\";\r\nimport \"@openzeppelin/contracts/token/ERC721/extensions/ERC721URIStorage.sol\";\r\nimport \"@openzeppelin/contracts/utils/Counters.sol\";\r\nimport \"@openzeppelin/contracts/access/Ownable.sol\";\r\n\r\ncontract Cutie is ERC721, ERC721Enumerable, ERC721URIStorage, Ownable {\r\n    using Counters for Counters.Counter;\r\n\r\n    Counters.Counter private _tokenIdCounter;\r\n\r\n    string public constant TOKEN_URI =\r\n        \"ipfs://QmZvBFsTFhfR75bEVitGVHcqCCkR5WgYmgHVNihH5nmejN\";\r\n\r\n    // Define naximum supply, mint price and maximum mint per transactions of NFT\r\n    uint256 MAX_SUPPLY = 100;\r\n    uint mintPrice = 0.01 ether;\r\n    uint maxPerTransaction = 5;\r\n\r\n    constructor() ERC721(\"Cutie\", \"CUTE\") {}\r\n\r\n    function safeMint(uint256 mintAmount) public payable {\r\n        require(mintAmount > 0, \"Must mint at least 1\");\r\n        require(\r\n            mintAmount <= maxPerTransaction,\r\n            \"Maximum 5 nfts allowed in a transaction\"\r\n        );\r\n        require(\r\n            _tokenIdCounter.current() + mintAmount <= MAX_SUPPLY,\r\n            \"Supply is not enough\"\r\n        );\r\n        require(msg.value >= mintPrice * mintAmount, \"Insufficient balance\");\r\n\r\n        for (uint256 i = 1; i <= mintAmount; i++) {\r\n            _tokenIdCounter.increment();\r\n            uint256 tokenId = _tokenIdCounter.current();\r\n            _safeMint(msg.sender, tokenId);\r\n            _setTokenURI(tokenId, TOKEN_URI);\r\n        }\r\n    }\r\n\r\n    function withdraw() public payable onlyOwner {\r\n        uint256 balance = address(this).balance;\r\n        require(balance > 0, \"Not enough balance\");\r\n        (bool status, ) = (msg.sender).call{value: balance}(\"\");\r\n        require(status, \"Withdraw failed\");\r\n    }\r\n\r\n    // The following functions are overrides required by Solidity.\r\n\r\n    function _beforeTokenTransfer(\r\n        address from,\r\n        address to,\r\n        uint256 tokenId\r\n    ) internal override(ERC721, ERC721Enumerable) {\r\n        super._beforeTokenTransfer(from, to, tokenId);\r\n    }\r\n\r\n    function _burn(uint256 tokenId)\r\n        internal\r\n        override(ERC721, ERC721URIStorage)\r\n    {\r\n        super._burn(tokenId);\r\n    }\r\n\r\n    function tokenURI(uint256 tokenId)\r\n        public\r\n        view\r\n        override(ERC721, ERC721URIStorage)\r\n        returns (string memory)\r\n    {\r\n        return super.tokenURI(tokenId);\r\n    }\r\n\r\n    function supportsInterface(bytes4 interfaceId)\r\n        public\r\n        view\r\n        override(ERC721, ERC721Enumerable)\r\n        returns (bool)\r\n    {\r\n        return super.supportsInterface(interfaceId);\r\n    }\r\n}\r\n",
  "sourcePath": "D:\\Stuff\\joke\\new-life\\simple-nft-contract\\NFT-simple-contract\\contracts\\Cutie.sol",
  "compiler": {
    "name": "solc",
    "version": "0.8.15+commit.e14f2714.Emscripten.clang"
  },
  "schemaVersion": "3.4.8",
  "updatedAt": "2022-08-02T16:32:04.621Z",
  "networkType": "ethereum",
  "devdoc": {
    "kind": "dev",
    "methods": {
      "approve(address,uint256)": {
        "details": "See {IERC721-approve}."
      },
      "balanceOf(address)": {
        "details": "See {IERC721-balanceOf}."
      },
      "getApproved(uint256)": {
        "details": "See {IERC721-getApproved}."
      },
      "isApprovedForAll(address,address)": {
        "details": "See {IERC721-isApprovedForAll}."
      },
      "name()": {
        "details": "See {IERC721Metadata-name}."
      },
      "owner()": {
        "details": "Returns the address of the current owner."
      },
      "ownerOf(uint256)": {
        "details": "See {IERC721-ownerOf}."
      },
      "renounceOwnership()": {
        "details": "Leaves the contract without owner. It will not be possible to call `onlyOwner` functions anymore. Can only be called by the current owner. NOTE: Renouncing ownership will leave the contract without an owner, thereby removing any functionality that is only available to the owner."
      },
      "safeTransferFrom(address,address,uint256)": {
        "details": "See {IERC721-safeTransferFrom}."
      },
      "safeTransferFrom(address,address,uint256,bytes)": {
        "details": "See {IERC721-safeTransferFrom}."
      },
      "setApprovalForAll(address,bool)": {
        "details": "See {IERC721-setApprovalForAll}."
      },
      "symbol()": {
        "details": "See {IERC721Metadata-symbol}."
      },
      "tokenByIndex(uint256)": {
        "details": "See {IERC721Enumerable-tokenByIndex}."
      },
      "tokenOfOwnerByIndex(address,uint256)": {
        "details": "See {IERC721Enumerable-tokenOfOwnerByIndex}."
      },
      "totalSupply()": {
        "details": "See {IERC721Enumerable-totalSupply}."
      },
      "transferFrom(address,address,uint256)": {
        "details": "See {IERC721-transferFrom}."
      },
      "transferOwnership(address)": {
        "details": "Transfers ownership of the contract to a new account (`newOwner`). Can only be called by the current owner."
      }
    },
    "version": 1
  },
  "userdoc": {
    "kind": "user",
    "methods": {},
    "version": 1
  }
}